:020000040800F2
:1000000000000220B10300080104000801040008F8
:1000100001040008010400080104000800000000B9
:1000200000000000000000000000000001040008C3
:100030000104000800000000010400080104000899
:10004000010400080104000801040008010400087C
:10005000010400080104000801040008010400086C
:10006000010400080104000801040008010400085C
:10007000010400080104000801040008010400084C
:10008000010400080104000801040008010400083C
:10009000010400080104000801040008010400082C
:1000A000010400080104000801040008010400081C
:1000B000010400080104000801040008010400080C
:1000C00001040008010400080104000801040008FC
:1000D00001040008010400080104000801040008EC
:1000E00001040008010400080104000801040008DC
:1000F00001040008010400080104000801040008CC
:1001000001040008010400080104000801040008BB
:1001100001040008010400080104000801040008AB
:10012000010400080104000801040008010400089B
:1001300001040008000000000000000001040008A5
:10014000010400080104000801040008010400087B
:10015000010400080104000801040008010400086B
:10016000010400080104000801040008010400085B
:100170000104000801040008010400080000000058
:10018000000000000000000000000000000000006F
:100190000104000800000000000000000104000845
:1001A0000000000000000000000000000104000842
:1001B000010400080104000801040008010400080B
:0401C000010400082E
:1001C40010B5054C237833B9044B13B10448AFF38D
:1001D40000800123237010BD0000002000000000F7
:1001E4004C04000808B5034B1BB103490348AFF3A3
:1001F400008008BD00000000040000204C0400083A
:1002040080B500AF00F032F8174B1B6903F400739C
:10021400002B1FD0144B1B6903F08003002B05D166
:10022400114B1B6903F04003002B09D00E4B5B6993
:100234000D4A43F010035361322000F089F812E0B4
:10024400094B5B69084A23F010035361322000F024
:100254007FF8D9E7044B5B69034A23F01003536129
:10026400322000F075F8CFE70000024080B500AFFF
:10027400354B1B6B344A43F001031363012000F038
:1002840067F8324B1B68314A23F4007313602F4B19
:100294001B682E4A43F4807313602C4B5B682B4A13
:1002A40023F010035360294B5B69284A23F01003A1
:1002B4005361264B1B68254A23F400231360234B08
:1002C4001B68224A23F480231360204BDB681F4AF7
:1002D40023F40023D3601D4BDB681C4A43F48023C2
:1002E400D3601A4B1B68194A23F400531360174B4D
:1002F4001B68164A23F480531360144BDB68134ABB
:1003040023F40053D360114BDB68104A43F4805349
:10031400D3600E4B1B680D4A23F4004313600B4B50
:100324001B680A4A23F480431360084BDB68074ABE
:1003340023F40043D360054BDB68044A43F4804351
:10034400D36000BF80BD00BF0038024000000240FF
:1003540080B485B000AF78600CE00023FB6002E05D
:10036400FB680133FB60FB68B3F5266FF8DD7B683F
:10037400013B7B607B68002BEFDC00BF00BF1437C0
:10038400BD465DF8047B704780B400AF064BD3F8DC
:100394008830054A43F47003C2F8883000BFBD4674
:1003A4005DF8047B704700BF00ED00E00D48854612
:1003B400FFF7EAFF0C480D490D4A002302E0D45828
:1003C400C4500433C4188C42F9D30A4A0A4C00239B
:1003D40001E013600432A242FBD300F011F8FFF7EE
:1003E4000FFFFEE7000002200000002000000020B4
:1003F4006C040008000000201C000020FEE7000040
:1004040070B50D4D0D4C641BA4100026A64209D1F5
:100414000B4D0C4C00F018F8641BA4100026A642E7
:1004240005D170BD55F8043B98470136EEE755F801
:10043400043B98470136F2E76404000864040008AA
:100444006404000868040008F8B500BFF8BC08BCE0
:100454009E467047F8B500BFF8BC08BC9E4670477E
:04046400E9010008A2
:04046800C5010008C2
:04000005080003B13B
:00000001FF
