:020000040800F2
:10000000000002207D040008CD040008CD04000893
:10001000CD040008CD040008CD0400080000000055
:10002000000000000000000000000000CD040008F7
:10003000CD04000800000000CD040008CD04000835
:10004000CD040008CD040008CD040008CD0400084C
:10005000CD040008CD040008CD040008CD0400083C
:10006000CD040008CD040008CD040008CD0400082C
:10007000CD040008CD040008CD040008CD0400081C
:10008000CD040008CD040008CD040008CD0400080C
:10009000CD040008CD040008CD040008CD040008FC
:1000A000CD040008CD040008CD040008CD040008EC
:1000B000CD040008CD040008CD040008CD040008DC
:1000C000CD040008CD040008CD040008CD040008CC
:1000D000CD040008CD040008CD040008CD040008BC
:1000E000CD040008CD040008CD040008CD040008AC
:1000F000CD040008CD040008CD040008CD0400089C
:10010000CD040008CD040008CD040008CD0400088B
:10011000CD040008CD040008CD040008CD0400087B
:10012000CD040008CD040008CD040008CD0400086B
:10013000CD0400080000000000000000CD0400080D
:10014000CD040008CD040008CD040008CD0400084B
:10015000CD040008CD040008CD040008CD0400083B
:10016000CD040008CD040008CD040008CD0400082B
:10017000CD040008CD040008CD04000800000000F4
:10018000000000000000000000000000000000006F
:10019000CD0400080000000000000000CD040008AD
:1001A000000000000000000000000000CD04000876
:1001B000CD040008CD040008CD040008CD040008DB
:0401C000CD04000862
:1001C40010B5054C237833B9044B13B10448AFF38D
:1001D40000800123237010BD0000002000000000F7
:1001E4001805000808B5034B1BB103490348AFF3D6
:1001F400008008BD0000000004000020180500086D
:1002040080B500AF00F01AF80A4B5B69094A23F085
:1002140020035361084B1B6903F40053002BF3D1F3
:1002240000F04AF8044B1B6903F40053002BF7D188
:10023400EAE700BF000002400008024080B400AFBB
:100244001A4B1B6B194A43F001031363174B1B6BC7
:10025400164A43F004031363154B1B68144A23F432
:1002640000631360124B1B68114A43F480631360EC
:100274000F4B5B680E4A23F0200353600C4B5B6901
:100284000B4A43F0200353610A4B1B68094A23F0CD
:1002940000631360074B1B68064A23F080631360F6
:1002A40000BFBD465DF8047B704700BF00380240C4
:1002B400000002400008024080B500AF564B5B6965
:1002C400554A43F020035361FA2000F0A7F8524B3B
:1002D4005B69514A23F020035361FA2000F09EF831
:1002E4004D4B5B694C4A43F020035361FA2000F004
:1002F40095F8494B5B69484A23F020035361FA207F
:1003040000F08CF8444B5B69434A43F0200353618B
:10031400FA2000F083F8404B5B693F4A23F0200346
:100324005361FA2000F07AF83B4B5B693A4A43F098
:10033400200353614FF47A7000F070F8364B5B6918
:10034400354A23F0200353614FF47A7000F066F8C5
:10035400314B5B69304A43F0200353614FF47A70A8
:1003640000F05CF82C4B5B692B4A23F020035361AB
:100374004FF47A7000F052F8274B5B69264A43F039
:10038400200353614FF47A7000F048F8224B5B6904
:10039400214A23F0200353614FF47A7000F03EF8B1
:1003A4001D4B5B691C4A43F020035361FA2000F0A3
:1003B40035F8194B5B69184A23F020035361FA207E
:1003C40000F02CF8144B5B69134A43F0200353618B
:1003D400FA2000F023F8104B5B690F4A23F0200346
:1003E4005361FA2000F01AF80B4B5B690A4A43F098
:1003F40020035361FA2000F011F8074B5B69064AA9
:1004040023F020035361FA2000F008F840F6C410EA
:1004140000F004F800BF80BD0000024080B485B045
:1004240000AF78600CE00023FB6002E0FB6801335E
:10043400FB60FB68B3F5266FF8DD7B68013B7B60EE
:100444007B68002BEFDC00BF00BF1437BD465DF8AE
:10045400047B704780B400AF064BD3F88830054A5C
:1004640043F47003C2F8883000BFBD465DF8047BD6
:10047400704700BF00ED00E00D488546FFF7EAFF36
:100484000C480D490D4A002302E0D458C4500433EB
:10049400C4188C42F9D30A4A0A4C002301E01360C1
:1004A4000432A242FBD300F011F8FFF7A9FEFEE7E5
:1004B4000000022000000020000000203805000891
:1004C400000000201C000020FEE7000070B50D4D68
:1004D4000D4C641BA4100026A64209D10B4D0C4CF4
:1004E40000F018F8641BA4100026A64205D170BDC4
:1004F40055F8043B98470136EEE755F8043B984716
:100504000136F2E730050008300500083005000820
:1005140034050008F8B500BFF8BC08BC9E46704717
:0C052400F8B500BFF8BC08BC9E4670474C
:04053000E9010008D5
:04053400C5010008F5
:040000050800047D6E
:00000001FF
