:020000040800F2
:10000000000002202503000875030008750300089E
:100010007503000875030008750300080000000060
:100020000000000000000000000000007503000850
:100030007503000800000000750300087503000840
:1000400075030008750300087503000875030008B0
:1000500075030008750300087503000875030008A0
:100060007503000875030008750300087503000890
:100070007503000875030008750300087503000880
:100080007503000875030008750300087503000870
:100090007503000875030008750300087503000860
:1000A0007503000875030008750300087503000850
:1000B0007503000875030008750300087503000840
:1000C0007503000875030008750300087503000830
:1000D0007503000875030008750300087503000820
:1000E0007503000875030008750300087503000810
:1000F0007503000875030008750300087503000800
:1001000075030008750300087503000875030008EF
:1001100075030008750300087503000875030008DF
:1001200075030008750300087503000875030008CF
:1001300075030008000000000000000075030008BF
:1001400075030008750300087503000875030008AF
:10015000750300087503000875030008750300089F
:10016000750300087503000875030008750300088F
:1001700075030008750300087503000800000000FF
:10018000000000000000000000000000000000006F
:10019000750300080000000000000000750300085F
:1001A00000000000000000000000000075030008CF
:1001B000750300087503000875030008750300083F
:0401C00075030008BB
:1001C40010B5054C237833B9044B13B10448AFF38D
:1001D40000800123237010BD0000002000000000F7
:1001E400C003000808B5034B1BB103490348AFF330
:1001F400008008BD0000000004000020C0030008C7
:1002040080B500AF00F020F80D4B1B6903F40053D8
:10021400002BF9D00B4B5B690A4A43F0200353616E
:100224004FF47A7000F04EF8064B5B69054A23F0F0
:10023400200353614FF47A7000F044F8E4E700BF00
:10024400000802400000024080B400AF1A4B1B6B50
:10025400194A43F001031363174B1B6B164A43F00F
:1002640004031363154B1B68144A23F400631360DF
:10027400124B1B68114A43F4806313600F4B5B6895
:100284000E4A23F0200353600C4B5B690B4A43F086
:10029400200353610A4B1B68094A23F0006313606F
:1002A400074B1B68064A23F08063136000BFBD46FA
:1002B4005DF8047B704700BF003802400000024034
:1002C4000008024080B485B000AF78600CE00023E1
:1002D400FB6002E0FB680133FB60FB68B3F5266F4B
:1002E400F8DD7B68013B7B607B68002BEFDC00BFA3
:1002F40000BF1437BD465DF8047B704780B400AF7F
:10030400064BD3F88830054A43F47003C2F88830AA
:1003140000BFBD465DF8047B704700BF00ED00E000
:100324000D488546FFF7EAFF0C480D490D4A0023A6
:1003340002E0D458C4500433C4188C42F9D30A4A96
:100344000A4C002301E013600432A242FBD300F004
:1003540011F8FFF755FFFEE700000220000000201F
:1003640000000020E0030008000000201C00002022
:10037400FEE7000070B50D4D0D4C641BA410002663
:10038400A64209D10B4D0C4C00F018F8641BA410C4
:100394000026A64205D170BD55F8043B98470136A6
:1003A400EEE755F8043B98470136F2E7D803000816
:1003B400D8030008D8030008DC030008F8B500BF20
:1003C400F8BC08BC9E467047F8B500BFF8BC08BC32
:0403D4009E4670478A
:0403D800E90100082F
:0403DC00C50100084F
:0400000508000325C7
:00000001FF
